:040000008A151D2917
:08000600FA1FF213003008009C
:10000E007B15FB1F11280130F300F201F101F00105
:08001E00FA0DF20CFF3008009E
:0C002600000000000000000000000800C6
:10003200FB14FB1F2328FF30F300F200F100F00055
:08004200FA0DF20CFF3008007A
:0E004A00533083120313FD00FD0B292808001C
:10005800243083120313FC00B530FD00FD0B322859
:0A006800FC0B322800000000080025
:0E007200F201F101F001F801F3010030080085
:1000800083160313DA1B4728831286134928831229
:10009000861783165A1B4F28831206135128831282
:1000A00006178316DA1A57288312861259288312E4
:1000B000861683165A1A5F28831206126128831245
:1000C00006166F1865280615662806118615132072
:1000D00086118316DA196F2883128613712883120A
:1000E000861783165A1977288312061379288312E4
:1000F00006178316DA187F28831286128128831246
:10010000861683165A1887288312061289288312A6
:1001100006166F188D2806158E28061186151320D1
:0E01200086116F1C95282C209628252008009B
:10012E0083120313F801F9011030FC00710DF80D64
:10013E00F90D7408F8027508031C750FF9020318FF
:10014E00AF287408F80775080318750FF907031020
:0A015E00F00DF10DFC0B9D280800C8
:100168007C18EA28FC18BB287C190929B428A001A6
:100178007208031DDB287108F2007008F100780886
:10018800F000F801A0157208031DDB287108F200C1
:100198007008F100F001A01120167208031DDB2879
:1001A8007108F200F101A01572080319FD28200852
:1001B800F302031D031C01290310F21BEA28F80DA2
:1001C800F00DF10DF20DF30BE12801297B1B701CDA
:1001D8000529F81F0529F00A0319F10A0319F20A7B
:1001E800031D0529F20CF10CF00CF30A0319092977
:1001F80005290130FC0039200C290230FC000720B9
:100208000C290430FC0003200C290830FC001920BC
:0402180000000800DA
:10021C00A0017208031D23297108F2007008F10077
:10022C00F001A0157208031D23297108F200F101D9
:10023C00A01120167208031931292008F302031D9E
:10024C00031C35290310F21B3929F00DF10DF20DA9
:10025C00F30B292935290130FC0039203C290230C7
:0E026C00FC0007203C290430FC0003200800A1
:10027A0083120313FB017308031D770803199429DA
:10028A0072087606FA007708F3077E30031C5129B4
:10029A00F302031897295429F302031C9A297208B6
:1002AA00F8007108FC007008FD00F817F617031033
:1002BA00F201F101F0011830A0007D1C6E297408CA
:1002CA00F00775080318750FF10776080318760FFB
:1002DA00F207F20CF10CF00CF80CFC0CFD0C0310FC
:1002EA00A00B6229F21B7E29F80DF00DF10DF20D1B
:1002FA00F3037B1B701C9029F81F9029F00A03193D
:10030A00F10A0319F20A031D9029F20CF10CF00C00
:10031A00F30A03199729FA1FF21300309C290130B6
:10032A0039209C29023019209C290430072000001A
:02033A000800B9
:10033C0083120313F8010830FC00700DF80D7408DB
:10034C00F8020318AB29F8070310F00DFC0BA329D6
:02035C00080097
:10035E00710DF80DF90D7408F8027508031C750F70
:10036E00F902F00DF10D0F30FC00710DF80DF90DC5
:10037E007408701CC829F8027508031C750FF90261
:10038E00CD29F80775080318750FF907F00DF10D53
:10039E00FC0BBC297018D9297408F80775080318C6
:0803AE00750FF90700000800BB
:1003B600243083120313FD00FD0BDF290000080023
:0603C600FB15FF300800EA
:1003CC008312031372087606A000F801F901730872
:1003DC007702031C092A7708FD007308F7007D08D3
:1003EC00F3007608FD007208F6007D08F20075082F
:1003FC00FD007108F5007D08F1007408FD0070081F
:10040C00F4007D08F00077080319822A7208FA00BC
:10041C00F217F61777087302F70003193C2A083015
:10042C007702031C322AF7007408F9007508F400EF
:10043C007608F500F60108307702031C322AF70023
:10044C007408F9007508F400F50108307702031CF4
:10045C00322A7A08F200822A770803193C2A031000
:10046C00F60CF50CF40CF90CF70B352AA01F492AE5
:10047C00F909F409F509F609F90A0319F40A03193B
:10048C00F50A0319F60A7908F80774080318740FAB
:10049C00F00775080318750FF10776080318760F27
:1004AC00F207A01B622A031C722AF20CF10CF00C4E
:1004BC00F80CF30F722A7E2A0318762AF809F00931
:1004CC00F109F209F80A0319F00A0319F10A0319E0
:1004DC00F20A8030FA067A2A0130FC00B420842A11
:1004EC000230FC00B420842A0430FC000E21842A43
:1004FC000830FC001920842A0030FC0000000800A1
:10050C00831603135508F2007208F100F20A56081C
:10051C00F000D60A700884000008F000710884000E
:10052C007008800071088400000803199E2A8A2A2A
:06053C005508F000080064
:0E054200831203136B088A006A088200080007
:100550007B14FB1FB32AF201FA1FFF30F200F100F7
:0A056000F000FA0DF20CFF30080065
:10056A0083120313FA017308031D7A147708031D13
:10057A00FA147A080319012B033A0319CC2A7A18B8
:10058A00C92AF61FFF2AFD2AF21FFD2AFF2A72082E
:10059A008039FA00F21376088039F6137A060319BD
:1005AA00DA2A7A080319FD2AFF2A7708730203193F
:1005BA00E12A031CF52AF92A760872020319E82AA5
:1005CA00031CF52AF92A750871020319EF2A031C7C
:1005DA00F52AF92A740870020319012B0318F92A5B
:1005EA00FA080319FF2AFD2AFA080319FD2AFF2A25
:1005FA000314080003100800031403150800080078
:10060A0083120313FB01FA01F9018030F800F10C9F
:10061A00F00C031C192B7408F90775080318750FD9
:10062A00FA070318FB0A0310F01F212B7408FA07B4
:10063A0075080318750FFB07FB0CFA0CF90CF80C7C
:10064A00031C0C2B7B08F3007A08F2007908F100EE
:06065A007808F000080022
:10066000831203136F1083165508DA0040206F14AD
:02067000080080
:1006720083160313D801053058020318472B580874
:100682005707840020308000D80A3C2B58085707AF
:1006920084008001D80358085707D9000A30F400B3
:1006A200F5015508F0005608F10097207808F0008F
:1006B2007908F1003030F007831659088400700879
:1006C20080000A30F400F5015508F0005608F100E8
:1006D200972070088316D5007108D6000030710685
:1006E200031D752B00307006031D782B7A2BD8035F
:0406F2004C2B080085
:1006F600831203137408003A031D8A2B7508003A07
:10070600031D8A2BFF30F0007F30F100E32B8312AC
:100716000313FD01F901F80171087004031900348F
:1007260071087506FA00FA1BFD09FB01F51FA02BDF
:10073600F409F509F40A0319F50AF11FA72BF009C4
:10074600F109F00A0319F10A71087504FA00FA1B97
:10075600BC2BAF217B18CF2BFD1F0034F009F1090C
:10076600F00A0319F10AF809F909F80A0319F90A4E
:100776000034F51FCB2BF11BC72B7108F90070084D
:10078600F800F101F001AF2BF101F001F00A00349D
:10079600F109F009FB0AAC2BF80A0319F90A7408E7
:1007A6007802031DAF2B75087902031DAF2BF901E3
:1007B600F801F00A0319F10AF11FAF2B0000FF340C
:0207C600080029
:1007C800831203137008F8007108F000F101F201B8
:1007D800F301FB01FC019630F300FA01F01FFA2B3C
:1007E800F809F009F80A0319F00AFA177008F10075
:0C07F8007808F000F801F2010E21080062
:10080400831203137408003A031D1D2C7508003A63
:10081400031D1D2C7608003A031D1D2C7708003A91
:10082400031D1D2CFF30F000FF30F1007F30F2007B
:10083400FF30F300B82C8312031377080319AC2C90
:1008440073080319AF2C720876068039FA00F21780
:10085400F617A0017208F8007108FC007008FD008A
:100864007408FD027508031C750FFC027608031C4E
:10087400760FF802F801FC01FD01031C482C03105B
:10088400F20CF10CF00CF80C0130A0007708F30224
:10089400031C522C7E302007F3070318B22C572C6C
:1008A4007E302007F307031CB52C1830FA07FD0D22
:1008B400FC0DF80DF00DF10DF20DA00D7408F00211
:1008C4007508031C750FF1027608031C760FF202FB
:1008D400760DA004201C702C7D147B2C7408F0076A
:1008E40075080318750FF10776080318760AF207DE
:1008F4007D10FA031F307A05031D592C7B1B7D1CC8
:10090400A22C0310F00DF10DF20DA00D7408F002ED
:100914007508031C750FF1027608031C760FF202AA
:10092400760D20040139FD070318FC0A0319F80A9F
:10093400031DA22CF80CFC0CFD0CF30A0319B22CB9
:10094400FA1FF8137808F2007C08F1007D08F00023
:100954000030B72C0130E321B72C02303920B72CFA
:0E09640004301920B72C0830072000000800CE
:1009720083120313FB0173080319F62C7208FA00A1
:10098200F2178E30F302F31FF92CF309F30A083041
:100992007302031CDC2CF300F10D7208F100F2016A
:1009A20008307302031CDC2CF300F10DF101730813
:1009B200031D0310E42C73080319E42C0310F20C3A
:1009C200F10CF30BDF2C7B1B711CEE2C031CEE2CA9
:1009D200F10A0319F20AF21B052DFA1F082DF2097A
:1009E200F109F10A0319F20A082DF201F101082DA9
:1009F2007B14FB1F0B2DF201FA1F0B2DFF30F200AF
:100A0200F100FA0DF20C0B2D0130FC000D2D00301F
:100A1200FC000D2DFF30FC00FC080319112DA8224B
:0A0A22007108F0007208F1000800EE
:100A2C0083160313D301D4014808CF004908D00022
:100A3C004A08D1004B08D2005208FF3A031D302D52
:100A4C005108FF3A031D302D5008FF3A031D302D7D
:100A5C004F08FF3A031D3A2D4C08D5005930D600EB
:100A6C0086220330F000172F0130CD00D11F492D05
:100A7C0080305106F0007008D100CD0A4C0884007B
:100A8C002D308000CC0A0030F0005206031D582D8A
:100A9C0070085106031D582D70085006031D582D63
:100AAC004F08003A031D612D4C08D5006130D6006B
:100ABC008622F001172F5208FF3A031D6F2D5108A3
:100ACC00003A031D6F2D5008003A031D6F2D4F087F
:100ADC00003A031D792D4C08D5005D30D6008622D6
:100AEC004D08F000172F0030F4000030F5000030F6
:100AFC00F6007F30F7004F08F0005008F100510865
:100B0C00F2005208F300B522013003180030F00057
:100B1C0070080319AE2D83164F08F0005008F10031
:100B2C005108F2005208F3000030F4000030F500D8
:100B3C002030F6008230F7003D2170088316CF007C
:100B4C007108D0007208D1007308D200D403792D3B
:100B5C0083160030F4000030F5002030F6008230AF
:100B6C00F7004F08F0005008F1005108F20052084D
:100B7C00F300B5220130031C0030F000700803199B
:100B8C00E42D83164F08F0005008F1005108F200D4
:100B9C005208F300CD30F400CC30F5004C30F600A8
:100BAC007B30F7003D2170088316CF007108D00010
:100BBC007208D1007308D200D40AAE2D8316FF3010
:100BCC004F05F800FF305005F9007F305105FA0051
:100BDC0000305205FB007808F4007908F5007A081B
:100BEC00F6007B08F700F40DF50DF60DF70D7410FB
:100BFC0000304F05F00000305005F1000030510579
:100C0C00F200FF305205F3007008CF007108D000DD
:100C1C007208D1007308D20074084F04F0007508F4
:100C2C005004F10076085104F20077085204F300E6
:100C3C007008CF007108D0007208D1007308D20080
:100C4C007F305202F0007008CE000130D2007008E4
:100C5C00F4004F08F0005008F1005108F20052085F
:100C6C00F30074080319412EF00DF10DF20DF30D84
:100C7C007010FF3E382E7008CF007108D00072083B
:100C8C00D1007308D2005208303EF0004C088400AA
:100C9C0070088000CC0A80305406F0008030013A95
:100CAC007002031C622E8030063AF000803054062D
:100CBC007002031C622E692E4C0884002E308000BA
:100CCC00CC0A0130D3000630CE004E08003A03198E
:100CDC00C72ED2014F08F0005008F1005108F20065
:100CEC005208F300F00DF10DF20DF30D7010F00D34
:100CFC00F10DF20DF30D70104F08F00750080318AA
:100D0C00500FF10751080318510FF207520803183E
:100D1C00520FF3077008CF007108D0007208D10091
:100D2C007308D2004F08F0005008F1005108F2008F
:100D3C005208F300F00DF10DF20DF30D7010700868
:100D4C00CF007108D0007208D1007308D20052088D
:100D5C00303EF0004C08840070088000CC0A530828
:100D6C00003A031DC52ED4035408003A031DC52EAA
:100D7C004C0884002E308000CC0A0130D300CE0306
:100D8C006B2EFF304C0784000008303A031DD02E28
:100D9C00CC03C72EFF304C07840000082E3A031DED
:100DAC00D82ECC035408003A0319132F4C08840096
:100DBC0065308000CC0A80305406F0008030003A58
:100DCC0070020318F12E4C0884002D308000CC0AE0
:100DDC005408003CD4005408CE005408093C0318B5
:100DEC00042F0A30F4004E08F0009E213030F0073A
:100DFC0083164C08840070088000CC0A0A30F4007A
:100E0C004E08F0009E217808F0003030F007831671
:100E1C004C08840070088000CC0A4C0884008001C7
:040E2C00F0010800C9
:100E3000831203139F01C0309F0483161F179F174F
:100E40004808F000F00D7010F00D7010F00D7010EB
:100E5000700883129F041F14DB211F151F1D322FE2
:100E600000002E2F1F101E08F100F00183161E082F
:080E7000F0040030F104080059
:100E780083160313C901CA014808F2004808F300A1
:100E8800720884000008203A031D4F2F49084A04BD
:100E9800031D4F2F5C2F0130C9000030CA007208B3
:100EA80084000008F0007308840070088000F30ACA
:100EB8007208F100F20A710884000008003A031D64
:080EC800442F4808F000080067
:100ED00083160313CD01CE014808CF004908D00086
:100EE00080304906F00080307002031D792F0030F9
:100EF00048020318872F0130CD000030CE0048088B
:100F0000003CCF004908031C013ED001D0024F082D
:100F1000D5005008D6004A08D70039230630CB0048
:100F20000030CC004C08003C031D982F4B08003CBF
:100F30000318B32F4B084A07F20001304B02F000B0
:100F40000030031C013E4C02F10070084A07840087
:100F50000008F00072088400700880000130CB02A5
:100F6000031CCC03922F4A088400203080004D08D7
:100F70004E040319D12FCB01CC014B084A07840042
:100F80000008203A031DC82FCB0A0319CC0ABD2F35
:100F90000130CB02031CCC034B084A0784002D30E0
:040FA00080000800C5
:0C0FA400831203138030F606E6210800DB
:100FB00083160313C9014908480784000008031970
:100FC000EA2F4908480784000008D500302383161B
:060FD000C90ADB2F080036
:100FD600831603130711831212150C3097040800A9
:0C0FE600831203139501171297120800E4
:101000008316031386110611061286120613861321
:1010100083128611061186130613861206128A1190
:101020002C208A158A112C208A158A112C208A15C9
:101030008616061686158A1113208A1586118A11BE
:101040002C208A1586158A1113208A1586118A117B
:101050002C208A1586158A1113208A1586118A116B
:101060002C208A15061286158A1113208A158611DE
:101070008A112C208A1586158A1113208A1586114B
:101080008612861786158A1113208A1586118A11F1
:101090002C208A158613061686158A1113208A15A8
:1010A0008611061286158A1113208A1586118A1157
:1010B0002C208A1586158A1113208A15861106168A
:1010C00086158A1113208A1586118A112C208A15FB
:1010D000061286158A1113208A158611861706179F
:1010E0008616061686158A1113208A1586118A110E
:0810F0002C208A156F14080082
:1010F800831603131208013EF000F1010318F10AE8
:101108004808F400F5018A1105238A150630F20013
:101118007008F4007108F500720803199828F50C96
:10112800F40CF513FF3E91280430F1007408F00028
:1011380071080319A328F00D7010FF3E9D28303068
:101148007005F3007408F0007508F100F10CF00C5C
:10115800F113F10CF00CF113700895000F3097059E
:0611680073089704080063
:10116E00FF3083120313EC00FF30ED00FF30EE0072
:10117E00FF309F01C0309F0483161F179F178312E5
:04118E001F14080022
:101192008A11A1228A150A128000840AEA0A031916
:0A11A200EB0AF003031DC928080042
:1011AC00E828803083160313C800FB28C030C80021
:1011BC00FB289430C800FB28D430C800FB288030B2
:1011CC00C800FB28831603134808013A0319D728D3
:1011DC004808023A0319DC284808033A0319DF28A7
:1011EC004808043A0319E228E5284903F0004808A6
:1011FC00F0077008C8007008DA008A1140208A15C0
:10120C006F108316CB014B084A07840000080319A2
:10121C001A294B084A0784000008D5008A1130238C
:0E122C008A158316CB0A092983126F14080055
:10123A008C23831603130716871683120712871245
:10124A008316071387138312071387130020B72007
:10125A00121492147C30831692008A11F3278A158D
:10126A000C308316DA008A1140208A150130831661
:10127A00C8000130C9004030CA00D62002308316A7
:10128A00C8000530C9003530CA00D6203330FB000B
:10129A00BB30FC00DF30FD00FD0B5129FC0B51294E
:1012AA00FB0B51290000000001308316DA008A1175
:1012BA0040208A150716071E9829A10A0319A20AAF
:1012CA0001308316DA008A1140208A15013083160C
:1012DA00C8000430C9002C30CA00D6202108831661
:1012EA00C800831222088316C9006330CA008A1113
:1012FA0068278A156330C8008A113C278A1502308C
:10130A00C8000630C9006330CA00D6200D30FB0081
:10131A00AF30FC00B630FD00FD0B9129FC0B912982
:10132A00FB0B912900008716871ED2290130A102E2
:10133A00031CA20301308316DA008A1140208A15A1
:10134A0001308316C8000430C9002330CA00D620F1
:10135A0021088316C800831222088316C900633045
:10136A00CA008A1168278A156330C8008A113C2787
:10137A008A150230C8000630C9006330CA00D62078
:10138A000D30FB00AF30FC00B630FD00FD0BCB2961
:10139A00FC0BCB29FB0BCB2900000D30FB00AF3037
:1013AA00FC00B630FD00FD0BD829FC0BD829FB0B3D
:1013BA00D82900008316C8018A1118278A157008CF
:1013CA00A8007108A9008A11E4238A150030F400E4
:1013DA000030F5002030F6008130F7008A113D21F7
:1013EA008A150030F400C030F5007F30F6008830EE
:1013FA00F7008A1102248A1570088316A40071085E
:10140A00A5007208A6007308A7000030F400003097
:10141A00F5004830F6008530F7008A113D218A151B
:10142A0070088316C4007108C5007208C6007308E4
:10143A00C7004408A0004508A1004608A2004708C2
:10144A00A30083122108F0002208F1008A11E42384
:10145A008A1583164408F4004508F5004608F60084
:10146A004708F7008A11B5228A150130031800309F
:10147A00F00070080319B72A0030F4000030F500B4
:10148A004830F6008430F70083162008F00021085F
:10149A00F1002208F2002308F3008A11B5228A1506
:1014AA00013003180030F00070080319B72A210828
:1014BA00F0002208F1008A11E4238A157008F4006A
:1014CA007108F5007208F6007308F7008316200801
:1014DA00F0002108F1002208F2002308F3008A1123
:1014EA00D2278A150030F4000030F5007F30F6006C
:1014FA008630F7008A113D218A1570088316C400C8
:10150A007108C5007208C6007308C7008312210853
:10151A00323CF0002208031C013EF101F1028A115B
:10152A00E4238A157008F4007108F5007208F600C1
:10153A007308F70083164408F0004508F1004608CE
:10154A00F2004708F3008A1102248A158A11B92485
:10155A008A1570088316AA007108AB0083128713D4
:10156A000717DD2A83162008F4002108F50022084F
:10157A00F6002308F7000030F0000030F100483090
:10158A00F2008430F3008A11B5228A15013003185B
:10159A000030F00070080319D72AFF308316AA001A
:1015AA00AB01DD2A8316AA01AB0183120713871741
:1015BA006430F0000030F10083162A08F4002B088A
:1015CA00F5008A1105238A15FF30F400F5018A1106
:1015DA007B238A1570088316C2007108C30070083D
:1015EA00C8007108C900BB30CA008A1168278A1569
:1015FA002008C8002108C9002208CA002308CB0015
:10160A00AC30CC008A1116258A15B0012A08C80008
:10161A007C208A11EB278A1501308316DA008A1199
:10162A0040208A1501308316C8000130C9005130A4
:10163A00CA00D620AC308316C8008A11D8278A156A
:10164A00DF30D5008A1130238A1543308316D5003E
:10165A008A1130238A1502308316C8000130C90066
:10166A004A30CA00D620BB308316C8008A11D82750
:10167A008A152530D5008A1130238A155F29442B13
:1017180021308400423083120313F0004A30EA007B
:081728000B30EB00C9200800A2
:0416940019340034D1
:101698005334453454342034543445344D34503460
:0216A80000340C
:1016AA005334453454342034543445344D3450344E
:0216BA000034FA
:1016BC0043344F344E34543452344F344C344C3411
:0616CC00453452340034E5
:1016D200463461346E3420345334703465346534A6
:0416E2006434003438
:0E16E600523450344D3420343D34203400341E
:1016F400543465346D34703420343D342034003433
:081704004E3461344E34003410
:08170C0049344E344634003428
:041714003034003439
:02400E004A2F37
:00000001FF
